{
  "_format": "hh-sol-artifact-1",
  "contractName": "GatitosPaymentMultisig",
  "sourceName": "contracts/GatitoWallet.sol",
  "abi": [
    {
      "inputs": [
        {
          "internalType": "address[]",
          "name": "_cuidadores",
          "type": "address[]"
        },
        {
          "internalType": "uint256",
          "name": "_firmasRequeridas",
          "type": "uint256"
        },
        {
          "internalType": "address[]",
          "name": "_criadores",
          "type": "address[]"
        },
        {
          "internalType": "uint256[]",
          "name": "_porcentajes",
          "type": "uint256[]"
        }
      ],
      "stateMutability": "nonpayable",
      "type": "constructor"
    },
    {
      "anonymous": false,
      "inputs": [
        {
          "indexed": false,
          "internalType": "address",
          "name": "remitente",
          "type": "address"
        },
        {
          "indexed": false,
          "internalType": "uint256",
          "name": "cantidad",
          "type": "uint256"
        }
      ],
      "name": "Deposito",
      "type": "event"
    },
    {
      "anonymous": false,
      "inputs": [
        {
          "indexed": false,
          "internalType": "uint256",
          "name": "id",
          "type": "uint256"
        },
        {
          "indexed": false,
          "internalType": "string",
          "name": "nombre",
          "type": "string"
        },
        {
          "indexed": false,
          "internalType": "uint256",
          "name": "precio",
          "type": "uint256"
        },
        {
          "indexed": false,
          "internalType": "string",
          "name": "imagen",
          "type": "string"
        },
        {
          "indexed": false,
          "internalType": "address",
          "name": "criador",
          "type": "address"
        }
      ],
      "name": "GatitoAgregado",
      "type": "event"
    },
    {
      "anonymous": false,
      "inputs": [
        {
          "indexed": false,
          "internalType": "uint256",
          "name": "id",
          "type": "uint256"
        },
        {
          "indexed": false,
          "internalType": "address",
          "name": "comprador",
          "type": "address"
        },
        {
          "indexed": false,
          "internalType": "uint256",
          "name": "precio",
          "type": "uint256"
        }
      ],
      "name": "GatitoComprado",
      "type": "event"
    },
    {
      "anonymous": false,
      "inputs": [
        {
          "indexed": false,
          "internalType": "address",
          "name": "criador",
          "type": "address"
        },
        {
          "indexed": false,
          "internalType": "uint256",
          "name": "cantidad",
          "type": "uint256"
        }
      ],
      "name": "PagoLiberado",
      "type": "event"
    },
    {
      "anonymous": false,
      "inputs": [
        {
          "indexed": false,
          "internalType": "uint256",
          "name": "id",
          "type": "uint256"
        },
        {
          "indexed": false,
          "internalType": "address",
          "name": "destino",
          "type": "address"
        },
        {
          "indexed": false,
          "internalType": "uint256",
          "name": "monto",
          "type": "uint256"
        }
      ],
      "name": "TxCreada",
      "type": "event"
    },
    {
      "anonymous": false,
      "inputs": [
        {
          "indexed": false,
          "internalType": "uint256",
          "name": "id",
          "type": "uint256"
        },
        {
          "indexed": false,
          "internalType": "address",
          "name": "destino",
          "type": "address"
        },
        {
          "indexed": false,
          "internalType": "uint256",
          "name": "monto",
          "type": "uint256"
        }
      ],
      "name": "TxEjecutada",
      "type": "event"
    },
    {
      "anonymous": false,
      "inputs": [
        {
          "indexed": false,
          "internalType": "uint256",
          "name": "id",
          "type": "uint256"
        },
        {
          "indexed": false,
          "internalType": "address",
          "name": "firmante",
          "type": "address"
        }
      ],
      "name": "TxFirmada",
      "type": "event"
    },
    {
      "inputs": [
        {
          "internalType": "string",
          "name": "_nombre",
          "type": "string"
        },
        {
          "internalType": "uint256",
          "name": "_precio",
          "type": "uint256"
        },
        {
          "internalType": "string",
          "name": "_imagen",
          "type": "string"
        }
      ],
      "name": "agregarGatito",
      "outputs": [],
      "stateMutability": "nonpayable",
      "type": "function"
    },
    {
      "inputs": [
        {
          "internalType": "uint256",
          "name": "_gatitoId",
          "type": "uint256"
        }
      ],
      "name": "comprarGatito",
      "outputs": [],
      "stateMutability": "payable",
      "type": "function"
    },
    {
      "inputs": [
        {
          "internalType": "address",
          "name": "_destino",
          "type": "address"
        },
        {
          "internalType": "uint256",
          "name": "_monto",
          "type": "uint256"
        }
      ],
      "name": "crearTransaccion",
      "outputs": [],
      "stateMutability": "nonpayable",
      "type": "function"
    },
    {
      "inputs": [
        {
          "internalType": "uint256",
          "name": "",
          "type": "uint256"
        }
      ],
      "name": "criadores",
      "outputs": [
        {
          "internalType": "address",
          "name": "",
          "type": "address"
        }
      ],
      "stateMutability": "view",
      "type": "function"
    },
    {
      "inputs": [
        {
          "internalType": "uint256",
          "name": "",
          "type": "uint256"
        }
      ],
      "name": "cuidadores",
      "outputs": [
        {
          "internalType": "address",
          "name": "",
          "type": "address"
        }
      ],
      "stateMutability": "view",
      "type": "function"
    },
    {
      "inputs": [
        {
          "internalType": "uint256",
          "name": "_gatitoId",
          "type": "uint256"
        }
      ],
      "name": "deshabilitarGatito",
      "outputs": [],
      "stateMutability": "nonpayable",
      "type": "function"
    },
    {
      "inputs": [
        {
          "internalType": "uint256",
          "name": "_txId",
          "type": "uint256"
        }
      ],
      "name": "ejecutarTransaccion",
      "outputs": [],
      "stateMutability": "nonpayable",
      "type": "function"
    },
    {
      "inputs": [
        {
          "internalType": "address",
          "name": "",
          "type": "address"
        }
      ],
      "name": "esCuidador",
      "outputs": [
        {
          "internalType": "bool",
          "name": "",
          "type": "bool"
        }
      ],
      "stateMutability": "view",
      "type": "function"
    },
    {
      "inputs": [
        {
          "internalType": "uint256",
          "name": "_txId",
          "type": "uint256"
        }
      ],
      "name": "firmarTransaccion",
      "outputs": [],
      "stateMutability": "nonpayable",
      "type": "function"
    },
    {
      "inputs": [],
      "name": "firmasRequeridas",
      "outputs": [
        {
          "internalType": "uint256",
          "name": "",
          "type": "uint256"
        }
      ],
      "stateMutability": "view",
      "type": "function"
    },
    {
      "inputs": [
        {
          "internalType": "uint256",
          "name": "",
          "type": "uint256"
        },
        {
          "internalType": "address",
          "name": "",
          "type": "address"
        }
      ],
      "name": "firmo",
      "outputs": [
        {
          "internalType": "bool",
          "name": "",
          "type": "bool"
        }
      ],
      "stateMutability": "view",
      "type": "function"
    },
    {
      "inputs": [
        {
          "internalType": "uint256",
          "name": "",
          "type": "uint256"
        }
      ],
      "name": "gatitos",
      "outputs": [
        {
          "internalType": "uint256",
          "name": "id",
          "type": "uint256"
        },
        {
          "internalType": "string",
          "name": "nombre",
          "type": "string"
        },
        {
          "internalType": "uint256",
          "name": "precio",
          "type": "uint256"
        },
        {
          "internalType": "string",
          "name": "imagen",
          "type": "string"
        },
        {
          "internalType": "address",
          "name": "criador",
          "type": "address"
        },
        {
          "internalType": "bool",
          "name": "disponible",
          "type": "bool"
        }
      ],
      "stateMutability": "view",
      "type": "function"
    },
    {
      "inputs": [
        {
          "internalType": "uint256",
          "name": "",
          "type": "uint256"
        },
        {
          "internalType": "uint256",
          "name": "",
          "type": "uint256"
        }
      ],
      "name": "historialFirmas",
      "outputs": [
        {
          "internalType": "address",
          "name": "firmante",
          "type": "address"
        },
        {
          "internalType": "uint256",
          "name": "timestamp",
          "type": "uint256"
        }
      ],
      "stateMutability": "view",
      "type": "function"
    },
    {
      "inputs": [
        {
          "internalType": "address",
          "name": "",
          "type": "address"
        },
        {
          "internalType": "uint256",
          "name": "",
          "type": "uint256"
        }
      ],
      "name": "misGatitosComprados",
      "outputs": [
        {
          "internalType": "uint256",
          "name": "",
          "type": "uint256"
        }
      ],
      "stateMutability": "view",
      "type": "function"
    },
    {
      "inputs": [],
      "name": "nextGatitoId",
      "outputs": [
        {
          "internalType": "uint256",
          "name": "",
          "type": "uint256"
        }
      ],
      "stateMutability": "view",
      "type": "function"
    },
    {
      "inputs": [],
      "name": "nextTxId",
      "outputs": [
        {
          "internalType": "uint256",
          "name": "",
          "type": "uint256"
        }
      ],
      "stateMutability": "view",
      "type": "function"
    },
    {
      "inputs": [],
      "name": "obtenerGatitos",
      "outputs": [
        {
          "components": [
            {
              "internalType": "uint256",
              "name": "id",
              "type": "uint256"
            },
            {
              "internalType": "string",
              "name": "nombre",
              "type": "string"
            },
            {
              "internalType": "uint256",
              "name": "precio",
              "type": "uint256"
            },
            {
              "internalType": "string",
              "name": "imagen",
              "type": "string"
            },
            {
              "internalType": "address",
              "name": "criador",
              "type": "address"
            },
            {
              "internalType": "bool",
              "name": "disponible",
              "type": "bool"
            }
          ],
          "internalType": "struct GatitosPaymentMultisig.Gatito[]",
          "name": "",
          "type": "tuple[]"
        }
      ],
      "stateMutability": "view",
      "type": "function"
    },
    {
      "inputs": [],
      "name": "obtenerMisGatitosComprados",
      "outputs": [
        {
          "internalType": "uint256[]",
          "name": "",
          "type": "uint256[]"
        }
      ],
      "stateMutability": "view",
      "type": "function"
    },
    {
      "inputs": [
        {
          "internalType": "address",
          "name": "",
          "type": "address"
        }
      ],
      "name": "porcentajeGatitos",
      "outputs": [
        {
          "internalType": "uint256",
          "name": "",
          "type": "uint256"
        }
      ],
      "stateMutability": "view",
      "type": "function"
    },
    {
      "inputs": [],
      "name": "repartirFondos",
      "outputs": [],
      "stateMutability": "nonpayable",
      "type": "function"
    },
    {
      "inputs": [],
      "name": "totalPorcentajes",
      "outputs": [
        {
          "internalType": "uint256",
          "name": "",
          "type": "uint256"
        }
      ],
      "stateMutability": "view",
      "type": "function"
    },
    {
      "inputs": [
        {
          "internalType": "uint256",
          "name": "",
          "type": "uint256"
        }
      ],
      "name": "transacciones",
      "outputs": [
        {
          "internalType": "uint256",
          "name": "id",
          "type": "uint256"
        },
        {
          "internalType": "address",
          "name": "destino",
          "type": "address"
        },
        {
          "internalType": "uint256",
          "name": "monto",
          "type": "uint256"
        },
        {
          "internalType": "uint256",
          "name": "firmas",
          "type": "uint256"
        },
        {
          "internalType": "bool",
          "name": "ejecutada",
          "type": "bool"
        }
      ],
      "stateMutability": "view",
      "type": "function"
    },
    {
      "inputs": [],
      "name": "verBalance",
      "outputs": [
        {
          "internalType": "uint256",
          "name": "",
          "type": "uint256"
        }
      ],
      "stateMutability": "view",
      "type": "function"
    }
  ],
  "bytecode": "0x608060405234801561001057600080fd5b50604051613939380380613939833981810160405281019061003291906106a1565b6001600d81905550600084511161007e576040517f08c379a0000000000000000000000000000000000000000000000000000000008152600401610075906107b9565b60405180910390fd5b60008311801561008f575083518311155b61009857600080fd5b60005b845181101561024657600160008683815181106100bb576100ba6107d9565b5b602002602001015173ffffffffffffffffffffffffffffffffffffffff1673ffffffffffffffffffffffffffffffffffffffff16815260200190815260200160002060009054906101000a900460ff161561014b576040517f08c379a000000000000000000000000000000000000000000000000000000000815260040161014290610854565b60405180910390fd5b6001806000878481518110610163576101626107d9565b5b602002602001015173ffffffffffffffffffffffffffffffffffffffff1673ffffffffffffffffffffffffffffffffffffffff16815260200190815260200160002060006101000a81548160ff02191690831515021790555060008582815181106101d1576101d06107d9565b5b60200260200101519080600181540180825580915050600190039060005260206000200160009091909190916101000a81548173ffffffffffffffffffffffffffffffffffffffff021916908373ffffffffffffffffffffffffffffffffffffffff160217905550808060010191505061009b565b50826002819055508051825114610292576040517f08c379a0000000000000000000000000000000000000000000000000000000008152600401610289906108c0565b60405180910390fd5b60005b82518110156103d35760038382815181106102b3576102b26107d9565b5b60200260200101519080600181540180825580915050600190039060005260206000200160009091909190916101000a81548173ffffffffffffffffffffffffffffffffffffffff021916908373ffffffffffffffffffffffffffffffffffffffff16021790555081818151811061032e5761032d6107d9565b5b60200260200101516004600085848151811061034d5761034c6107d9565b5b602002602001015173ffffffffffffffffffffffffffffffffffffffff1673ffffffffffffffffffffffffffffffffffffffff168152602001908152602001600020819055508181815181106103a6576103a56107d9565b5b6020026020010151600560008282546103bf919061090f565b925050819055508080600101915050610295565b5050505050610943565b6000604051905090565b600080fd5b600080fd5b600080fd5b6000601f19601f8301169050919050565b7f4e487b7100000000000000000000000000000000000000000000000000000000600052604160045260246000fd5b61043f826103f6565b810181811067ffffffffffffffff8211171561045e5761045d610407565b5b80604052505050565b60006104716103dd565b905061047d8282610436565b919050565b600067ffffffffffffffff82111561049d5761049c610407565b5b602082029050602081019050919050565b600080fd5b600073ffffffffffffffffffffffffffffffffffffffff82169050919050565b60006104de826104b3565b9050919050565b6104ee816104d3565b81146104f957600080fd5b50565b60008151905061050b816104e5565b92915050565b600061052461051f84610482565b610467565b90508083825260208201905060208402830185811115610547576105466104ae565b5b835b81811015610570578061055c88826104fc565b845260208401935050602081019050610549565b5050509392505050565b600082601f83011261058f5761058e6103f1565b5b815161059f848260208601610511565b91505092915050565b6000819050919050565b6105bb816105a8565b81146105c657600080fd5b50565b6000815190506105d8816105b2565b92915050565b600067ffffffffffffffff8211156105f9576105f8610407565b5b602082029050602081019050919050565b600061061d610618846105de565b610467565b905080838252602082019050602084028301858111156106405761063f6104ae565b5b835b81811015610669578061065588826105c9565b845260208401935050602081019050610642565b5050509392505050565b600082601f830112610688576106876103f1565b5b815161069884826020860161060a565b91505092915050565b600080600080608085870312156106bb576106ba6103e7565b5b600085015167ffffffffffffffff8111156106d9576106d86103ec565b5b6106e58782880161057a565b94505060206106f6878288016105c9565b935050604085015167ffffffffffffffff811115610717576107166103ec565b5b6107238782880161057a565b925050606085015167ffffffffffffffff811115610744576107436103ec565b5b61075087828801610673565b91505092959194509250565b600082825260208201905092915050565b7f44656265206861626572206375696461646f7265730000000000000000000000600082015250565b60006107a360158361075c565b91506107ae8261076d565b602082019050919050565b600060208201905081810360008301526107d281610796565b9050919050565b7f4e487b7100000000000000000000000000000000000000000000000000000000600052603260045260246000fd5b7f4475706c696361646f0000000000000000000000000000000000000000000000600082015250565b600061083e60098361075c565b915061084982610808565b602082019050919050565b6000602082019050818103600083015261086d81610831565b9050919050565b7f4c6973746173206e6f20636f696e636964656e00000000000000000000000000600082015250565b60006108aa60138361075c565b91506108b582610874565b602082019050919050565b600060208201905081810360008301526108d98161089d565b9050919050565b7f4e487b7100000000000000000000000000000000000000000000000000000000600052601160045260246000fd5b600061091a826105a8565b9150610925836105a8565b925082820190508082111561093d5761093c6108e0565b5b92915050565b612fe7806109526000396000f3fe6080604052600436106101405760003560e01c80638aff87b2116100b6578063db410c4e1161006f578063db410c4e1461049d578063dc4fca4a146104df578063e3ce48c5146104fb578063e551f8cc14610524578063e5ba01621461054d578063fd8abf731461057857610140565b80638aff87b21461038b57806392127701146103b65780639c55f9d4146103cd578063a6e149d51461040a578063a98ec12c14610435578063d5cf12731461047257610140565b80636a45e68d116101085780636a45e68d1461022d57806370d551e214610256578063714ac8261461029757806374278e54146102d45780637a7c1795146103115780637e5bad221461034e57610140565b80631d70a5c2146101455780631fb5db0a1461017057806331d43b56146101ae57806332c90992146101d957806347c5d9a114610202575b600080fd5b34801561015157600080fd5b5061015a6105a1565b6040516101679190611d8d565b60405180910390f35b34801561017c57600080fd5b5061019760048036038101906101929190611def565b610636565b6040516101a5929190611e7f565b60405180910390f35b3480156101ba57600080fd5b506101c3610697565b6040516101d091906120b4565b60405180910390f35b3480156101e557600080fd5b5061020060048036038101906101fb9190612102565b6108fa565b005b34801561020e57600080fd5b50610217610b1a565b6040516102249190612142565b60405180910390f35b34801561023957600080fd5b50610254600480360381019061024f9190612292565b610b20565b005b34801561026257600080fd5b5061027d6004803603810190610278919061231d565b610d52565b60405161028e959493929190612359565b60405180910390f35b3480156102a357600080fd5b506102be60048036038101906102b9919061231d565b610dc5565b6040516102cb91906123ac565b60405180910390f35b3480156102e057600080fd5b506102fb60048036038101906102f691906123c7565b610e04565b6040516103089190612407565b60405180910390f35b34801561031d57600080fd5b5061033860048036038101906103339190612422565b610e33565b6040516103459190612142565b60405180910390f35b34801561035a57600080fd5b5061037560048036038101906103709190612102565b610e4b565b6040516103829190612142565b60405180910390f35b34801561039757600080fd5b506103a0610e7c565b6040516103ad9190612142565b60405180910390f35b3480156103c257600080fd5b506103cb610e82565b005b3480156103d957600080fd5b506103f460048036038101906103ef919061231d565b61115d565b60405161040191906123ac565b60405180910390f35b34801561041657600080fd5b5061041f61119c565b60405161042c9190612142565b60405180910390f35b34801561044157600080fd5b5061045c60048036038101906104579190612422565b6111a2565b6040516104699190612407565b60405180910390f35b34801561047e57600080fd5b506104876111c2565b6040516104949190612142565b60405180910390f35b3480156104a957600080fd5b506104c460048036038101906104bf919061231d565b6111ca565b6040516104d696959493929190612499565b60405180910390f35b6104f960048036038101906104f4919061231d565b611343565b005b34801561050757600080fd5b50610522600480360381019061051d919061231d565b611545565b005b34801561053057600080fd5b5061054b6004803603810190610546919061231d565b611840565b005b34801561055957600080fd5b50610562611955565b60405161056f9190612142565b60405180910390f35b34801561058457600080fd5b5061059f600480360381019061059a919061231d565b61195b565b005b6060600c60003373ffffffffffffffffffffffffffffffffffffffff1673ffffffffffffffffffffffffffffffffffffffff16815260200190815260200160002080548060200260200160405190810160405280929190818152602001828054801561062c57602002820191906000526020600020905b815481526020019060010190808311610618575b5050505050905090565b6009602052816000526040600020818154811061065257600080fd5b9060005260206000209060020201600091509150508060000160009054906101000a900473ffffffffffffffffffffffffffffffffffffffff16908060010154905082565b60606000600a5467ffffffffffffffff8111156106b7576106b6612167565b5b6040519080825280602002602001820160405280156106f057816020015b6106dd611c77565b8152602001906001900390816106d55790505b50905060005b600a548110156108f257600b60008281526020019081526020016000206040518060c00160405290816000820154815260200160018201805461073890612537565b80601f016020809104026020016040519081016040528092919081815260200182805461076490612537565b80156107b15780601f10610786576101008083540402835291602001916107b1565b820191906000526020600020905b81548152906001019060200180831161079457829003601f168201915b50505050508152602001600282015481526020016003820180546107d490612537565b80601f016020809104026020016040519081016040528092919081815260200182805461080090612537565b801561084d5780601f106108225761010080835404028352916020019161084d565b820191906000526020600020905b81548152906001019060200180831161083057829003601f168201915b505050505081526020016004820160009054906101000a900473ffffffffffffffffffffffffffffffffffffffff1673ffffffffffffffffffffffffffffffffffffffff1673ffffffffffffffffffffffffffffffffffffffff1681526020016004820160149054906101000a900460ff1615151515815250508282815181106108da576108d9612568565b5b602002602001018190525080806001019150506106f6565b508091505090565b600160003373ffffffffffffffffffffffffffffffffffffffff1673ffffffffffffffffffffffffffffffffffffffff16815260200190815260200160002060009054906101000a900460ff16610986576040517f08c379a000000000000000000000000000000000000000000000000000000000815260040161097d906125e3565b60405180910390fd5b600073ffffffffffffffffffffffffffffffffffffffff168273ffffffffffffffffffffffffffffffffffffffff16036109bf57600080fd5b600081116109cc57600080fd5b6000600760008154809291906109e190612632565b91905055905060066040518060a001604052808381526020018573ffffffffffffffffffffffffffffffffffffffff168152602001848152602001600081526020016000151581525090806001815401808255809150506001900390600052602060002090600502016000909190919091506000820151816000015560208201518160010160006101000a81548173ffffffffffffffffffffffffffffffffffffffff021916908373ffffffffffffffffffffffffffffffffffffffff160217905550604082015181600201556060820151816003015560808201518160040160006101000a81548160ff02191690831515021790555050507f4d645868d4414f36720e92ba2ce8a8206bb254cc92c2ebc1fa114e0e6f19c8c6818484604051610b0d9392919061267a565b60405180910390a1505050565b600a5481565b600160003373ffffffffffffffffffffffffffffffffffffffff1673ffffffffffffffffffffffffffffffffffffffff16815260200190815260200160002060009054906101000a900460ff16610bac576040517f08c379a0000000000000000000000000000000000000000000000000000000008152600401610ba3906125e3565b60405180910390fd5b60008211610bef576040517f08c379a0000000000000000000000000000000000000000000000000000000008152600401610be6906126fd565b60405180910390fd5b6000600a6000815480929190610c0490612632565b9190505590506040518060c001604052808281526020018581526020018481526020018381526020013373ffffffffffffffffffffffffffffffffffffffff16815260200160011515815250600b6000838152602001908152602001600020600082015181600001556020820151816001019081610c8291906128c9565b50604082015181600201556060820151816003019081610ca291906128c9565b5060808201518160040160006101000a81548173ffffffffffffffffffffffffffffffffffffffff021916908373ffffffffffffffffffffffffffffffffffffffff16021790555060a08201518160040160146101000a81548160ff0219169083151502179055509050507fcf976c11b4f4e64a748e2e4fdb0ae58d55f8f22258348410665de010b4a8ffe48185858533604051610d4495949392919061299b565b60405180910390a150505050565b60068181548110610d6257600080fd5b90600052602060002090600502016000915090508060000154908060010160009054906101000a900473ffffffffffffffffffffffffffffffffffffffff16908060020154908060030154908060040160009054906101000a900460ff16905085565b60038181548110610dd557600080fd5b906000526020600020016000915054906101000a900473ffffffffffffffffffffffffffffffffffffffff1681565b60086020528160005260406000206020528060005260406000206000915091509054906101000a900460ff1681565b60046020528060005260406000206000915090505481565b600c6020528160005260406000208181548110610e6757600080fd5b90600052602060002001600091509150505481565b60075481565b600160003373ffffffffffffffffffffffffffffffffffffffff1673ffffffffffffffffffffffffffffffffffffffff16815260200190815260200160002060009054906101000a900460ff16610f0e576040517f08c379a0000000000000000000000000000000000000000000000000000000008152600401610f05906125e3565b60405180910390fd5b6002600d5403610f53576040517f08c379a0000000000000000000000000000000000000000000000000000000008152600401610f4a90612a48565b60405180910390fd5b6002600d81905550600047905060008111610fa3576040517f08c379a0000000000000000000000000000000000000000000000000000000008152600401610f9a90612ab4565b60405180910390fd5b60005b60038054905081101561115157600060038281548110610fc957610fc8612568565b5b9060005260206000200160009054906101000a900473ffffffffffffffffffffffffffffffffffffffff1690506000600554600460008473ffffffffffffffffffffffffffffffffffffffff1673ffffffffffffffffffffffffffffffffffffffff16815260200190815260200160002054856110469190612ad4565b6110509190612b45565b905060008111156111425760008273ffffffffffffffffffffffffffffffffffffffff168260405161108190612ba7565b60006040518083038185875af1925050503d80600081146110be576040519150601f19603f3d011682016040523d82523d6000602084013e6110c3565b606091505b5050905080611107576040517f08c379a00000000000000000000000000000000000000000000000000000000081526004016110fe90612c08565b60405180910390fd5b7f2630cfa8cd2628e061c2a2b3d058c588321ac79caf397e6260a7f097025d5fdb8383604051611138929190611e7f565b60405180910390a1505b50508080600101915050610fa6565b50506001600d81905550565b6000818154811061116d57600080fd5b906000526020600020016000915054906101000a900473ffffffffffffffffffffffffffffffffffffffff1681565b60025481565b60016020528060005260406000206000915054906101000a900460ff1681565b600047905090565b600b6020528060005260406000206000915090508060000154908060010180546111f390612537565b80601f016020809104026020016040519081016040528092919081815260200182805461121f90612537565b801561126c5780601f106112415761010080835404028352916020019161126c565b820191906000526020600020905b81548152906001019060200180831161124f57829003601f168201915b50505050509080600201549080600301805461128790612537565b80601f01602080910402602001604051908101604052809291908181526020018280546112b390612537565b80156113005780601f106112d557610100808354040283529160200191611300565b820191906000526020600020905b8154815290600101906020018083116112e357829003601f168201915b5050505050908060040160009054906101000a900473ffffffffffffffffffffffffffffffffffffffff16908060040160149054906101000a900460ff16905086565b6002600d5403611388576040517f08c379a000000000000000000000000000000000000000000000000000000000815260040161137f90612a48565b60405180910390fd5b6002600d819055506000600b600083815260200190815260200160002090508060040160149054906101000a900460ff166113f8576040517f08c379a00000000000000000000000000000000000000000000000000000000081526004016113ef90612c74565b60405180910390fd5b8060020154341461143e576040517f08c379a000000000000000000000000000000000000000000000000000000000815260040161143590612ce0565b60405180910390fd5b60008160040160146101000a81548160ff0219169083151502179055507f56dfeae157fc265f01ff88e5928499b572a6be2e5860e55755bc84049bca0750823383600201546040516114929392919061267a565b60405180910390a17f453529dac6ef979a41d67fbeeabdfae29903c185f64d77aa690df9eca5f1aa6033346040516114cb929190611e7f565b60405180910390a1600c60003373ffffffffffffffffffffffffffffffffffffffff1673ffffffffffffffffffffffffffffffffffffffff168152602001908152602001600020829080600181540180825580915050600190039060005260206000200160009091909190915055506001600d8190555050565b600160003373ffffffffffffffffffffffffffffffffffffffff1673ffffffffffffffffffffffffffffffffffffffff16815260200190815260200160002060009054906101000a900460ff166115d1576040517f08c379a00000000000000000000000000000000000000000000000000000000081526004016115c8906125e3565b60405180910390fd5b6002600d5403611616576040517f08c379a000000000000000000000000000000000000000000000000000000000815260040161160d90612a48565b60405180910390fd5b6002600d8190555060006006828154811061163457611633612568565b5b906000526020600020906005020190508060040160009054906101000a900460ff1615611696576040517f08c379a000000000000000000000000000000000000000000000000000000000815260040161168d90612d4c565b60405180910390fd5b600254816003015410156116df576040517f08c379a00000000000000000000000000000000000000000000000000000000081526004016116d690612db8565b60405180910390fd5b60018160040160006101000a81548160ff02191690831515021790555060008160010160009054906101000a900473ffffffffffffffffffffffffffffffffffffffff1673ffffffffffffffffffffffffffffffffffffffff16826002015460405161174a90612ba7565b60006040518083038185875af1925050503d8060008114611787576040519150601f19603f3d011682016040523d82523d6000602084013e61178c565b606091505b50509050806117d0576040517f08c379a00000000000000000000000000000000000000000000000000000000081526004016117c790612e24565b60405180910390fd5b7fd523d98e9ccf0f867b8aa2399f581bd4ab00685167d4348d4c70c81ce761bf40838360010160009054906101000a900473ffffffffffffffffffffffffffffffffffffffff16846002015460405161182b9392919061267a565b60405180910390a150506001600d8190555050565b600160003373ffffffffffffffffffffffffffffffffffffffff1673ffffffffffffffffffffffffffffffffffffffff16815260200190815260200160002060009054906101000a900460ff166118cc576040517f08c379a00000000000000000000000000000000000000000000000000000000081526004016118c3906125e3565b60405180910390fd5b6000600b600083815260200190815260200160002090508060040160149054906101000a900460ff16611934576040517f08c379a000000000000000000000000000000000000000000000000000000000815260040161192b90612e90565b60405180910390fd5b60008160040160146101000a81548160ff0219169083151502179055505050565b60055481565b600160003373ffffffffffffffffffffffffffffffffffffffff1673ffffffffffffffffffffffffffffffffffffffff16815260200190815260200160002060009054906101000a900460ff166119e7576040517f08c379a00000000000000000000000000000000000000000000000000000000081526004016119de906125e3565b60405180910390fd5b6000600682815481106119fd576119fc612568565b5b906000526020600020906005020190506008600083815260200190815260200160002060003373ffffffffffffffffffffffffffffffffffffffff1673ffffffffffffffffffffffffffffffffffffffff16815260200190815260200160002060009054906101000a900460ff1615611aab576040517f08c379a0000000000000000000000000000000000000000000000000000000008152600401611aa290612efc565b60405180910390fd5b8060040160009054906101000a900460ff1615611afd576040517f08c379a0000000000000000000000000000000000000000000000000000000008152600401611af490612f68565b60405180910390fd5b60016008600084815260200190815260200160002060003373ffffffffffffffffffffffffffffffffffffffff1673ffffffffffffffffffffffffffffffffffffffff16815260200190815260200160002060006101000a81548160ff021916908315150217905550806003016000815480929190611b7b90612632565b91905055506009600083815260200190815260200160002060405180604001604052803373ffffffffffffffffffffffffffffffffffffffff16815260200142815250908060018154018082558091505060019003906000526020600020906002020160009091909190915060008201518160000160006101000a81548173ffffffffffffffffffffffffffffffffffffffff021916908373ffffffffffffffffffffffffffffffffffffffff1602179055506020820151816001015550507fd9d679ee19c056ade7f0bb7d5f2f8378be1ac9b30005193d5b56a42504e65ca68233604051611c6b929190612f88565b60405180910390a15050565b6040518060c0016040528060008152602001606081526020016000815260200160608152602001600073ffffffffffffffffffffffffffffffffffffffff1681526020016000151581525090565b600081519050919050565b600082825260208201905092915050565b6000819050602082019050919050565b6000819050919050565b611d0481611cf1565b82525050565b6000611d168383611cfb565b60208301905092915050565b6000602082019050919050565b6000611d3a82611cc5565b611d448185611cd0565b9350611d4f83611ce1565b8060005b83811015611d80578151611d678882611d0a565b9750611d7283611d22565b925050600181019050611d53565b5085935050505092915050565b60006020820190508181036000830152611da78184611d2f565b905092915050565b6000604051905090565b600080fd5b600080fd5b611dcc81611cf1565b8114611dd757600080fd5b50565b600081359050611de981611dc3565b92915050565b60008060408385031215611e0657611e05611db9565b5b6000611e1485828601611dda565b9250506020611e2585828601611dda565b9150509250929050565b600073ffffffffffffffffffffffffffffffffffffffff82169050919050565b6000611e5a82611e2f565b9050919050565b611e6a81611e4f565b82525050565b611e7981611cf1565b82525050565b6000604082019050611e946000830185611e61565b611ea16020830184611e70565b9392505050565b600081519050919050565b600082825260208201905092915050565b6000819050602082019050919050565b600081519050919050565b600082825260208201905092915050565b60005b83811015611f0e578082015181840152602081019050611ef3565b60008484015250505050565b6000601f19601f8301169050919050565b6000611f3682611ed4565b611f408185611edf565b9350611f50818560208601611ef0565b611f5981611f1a565b840191505092915050565b611f6d81611e4f565b82525050565b60008115159050919050565b611f8881611f73565b82525050565b600060c083016000830151611fa66000860182611cfb565b5060208301518482036020860152611fbe8282611f2b565b9150506040830151611fd36040860182611cfb565b5060608301518482036060860152611feb8282611f2b565b91505060808301516120006080860182611f64565b5060a083015161201360a0860182611f7f565b508091505092915050565b600061202a8383611f8e565b905092915050565b6000602082019050919050565b600061204a82611ea8565b6120548185611eb3565b93508360208202850161206685611ec4565b8060005b858110156120a25784840389528151612083858261201e565b945061208e83612032565b925060208a0199505060018101905061206a565b50829750879550505050505092915050565b600060208201905081810360008301526120ce818461203f565b905092915050565b6120df81611e4f565b81146120ea57600080fd5b50565b6000813590506120fc816120d6565b92915050565b6000806040838503121561211957612118611db9565b5b6000612127858286016120ed565b925050602061213885828601611dda565b9150509250929050565b60006020820190506121576000830184611e70565b92915050565b600080fd5b600080fd5b7f4e487b7100000000000000000000000000000000000000000000000000000000600052604160045260246000fd5b61219f82611f1a565b810181811067ffffffffffffffff821117156121be576121bd612167565b5b80604052505050565b60006121d1611daf565b90506121dd8282612196565b919050565b600067ffffffffffffffff8211156121fd576121fc612167565b5b61220682611f1a565b9050602081019050919050565b82818337600083830152505050565b6000612235612230846121e2565b6121c7565b90508281526020810184848401111561225157612250612162565b5b61225c848285612213565b509392505050565b600082601f8301126122795761227861215d565b5b8135612289848260208601612222565b91505092915050565b6000806000606084860312156122ab576122aa611db9565b5b600084013567ffffffffffffffff8111156122c9576122c8611dbe565b5b6122d586828701612264565b93505060206122e686828701611dda565b925050604084013567ffffffffffffffff81111561230757612306611dbe565b5b61231386828701612264565b9150509250925092565b60006020828403121561233357612332611db9565b5b600061234184828501611dda565b91505092915050565b61235381611f73565b82525050565b600060a08201905061236e6000830188611e70565b61237b6020830187611e61565b6123886040830186611e70565b6123956060830185611e70565b6123a2608083018461234a565b9695505050505050565b60006020820190506123c16000830184611e61565b92915050565b600080604083850312156123de576123dd611db9565b5b60006123ec85828601611dda565b92505060206123fd858286016120ed565b9150509250929050565b600060208201905061241c600083018461234a565b92915050565b60006020828403121561243857612437611db9565b5b6000612446848285016120ed565b91505092915050565b600082825260208201905092915050565b600061246b82611ed4565b612475818561244f565b9350612485818560208601611ef0565b61248e81611f1a565b840191505092915050565b600060c0820190506124ae6000830189611e70565b81810360208301526124c08188612460565b90506124cf6040830187611e70565b81810360608301526124e18186612460565b90506124f06080830185611e61565b6124fd60a083018461234a565b979650505050505050565b7f4e487b7100000000000000000000000000000000000000000000000000000000600052602260045260246000fd5b6000600282049050600182168061254f57607f821691505b60208210810361256257612561612508565b5b50919050565b7f4e487b7100000000000000000000000000000000000000000000000000000000600052603260045260246000fd5b7f4e6f206175746f72697a61646f00000000000000000000000000000000000000600082015250565b60006125cd600d8361244f565b91506125d882612597565b602082019050919050565b600060208201905081810360008301526125fc816125c0565b9050919050565b7f4e487b7100000000000000000000000000000000000000000000000000000000600052601160045260246000fd5b600061263d82611cf1565b91507fffffffffffffffffffffffffffffffffffffffffffffffffffffffffffffffff820361266f5761266e612603565b5b600182019050919050565b600060608201905061268f6000830186611e70565b61269c6020830185611e61565b6126a96040830184611e70565b949350505050565b7f50726563696f20696e76616c69646f0000000000000000000000000000000000600082015250565b60006126e7600f8361244f565b91506126f2826126b1565b602082019050919050565b60006020820190508181036000830152612716816126da565b9050919050565b60008190508160005260206000209050919050565b60006020601f8301049050919050565b600082821b905092915050565b60006008830261277f7fffffffffffffffffffffffffffffffffffffffffffffffffffffffffffffffff82612742565b6127898683612742565b95508019841693508086168417925050509392505050565b6000819050919050565b60006127c66127c16127bc84611cf1565b6127a1565b611cf1565b9050919050565b6000819050919050565b6127e0836127ab565b6127f46127ec826127cd565b84845461274f565b825550505050565b600090565b6128096127fc565b6128148184846127d7565b505050565b5b818110156128385761282d600082612801565b60018101905061281a565b5050565b601f82111561287d5761284e8161271d565b61285784612732565b81016020851015612866578190505b61287a61287285612732565b830182612819565b50505b505050565b600082821c905092915050565b60006128a060001984600802612882565b1980831691505092915050565b60006128b9838361288f565b9150826002028217905092915050565b6128d282611ed4565b67ffffffffffffffff8111156128eb576128ea612167565b5b6128f58254612537565b61290082828561283c565b600060209050601f8311600181146129335760008415612921578287015190505b61292b85826128ad565b865550612993565b601f1984166129418661271d565b60005b8281101561296957848901518255600182019150602085019450602081019050612944565b868310156129865784890151612982601f89168261288f565b8355505b6001600288020188555050505b505050505050565b600060a0820190506129b06000830188611e70565b81810360208301526129c28187612460565b90506129d16040830186611e70565b81810360608301526129e38185612460565b90506129f26080830184611e61565b9695505050505050565b7f5265656e7472616e63792064657465637461646f000000000000000000000000600082015250565b6000612a3260148361244f565b9150612a3d826129fc565b602082019050919050565b60006020820190508181036000830152612a6181612a25565b9050919050565b7f4e6f2068617920666f6e646f7300000000000000000000000000000000000000600082015250565b6000612a9e600d8361244f565b9150612aa982612a68565b602082019050919050565b60006020820190508181036000830152612acd81612a91565b9050919050565b6000612adf82611cf1565b9150612aea83611cf1565b9250828202612af881611cf1565b91508282048414831517612b0f57612b0e612603565b5b5092915050565b7f4e487b7100000000000000000000000000000000000000000000000000000000600052601260045260246000fd5b6000612b5082611cf1565b9150612b5b83611cf1565b925082612b6b57612b6a612b16565b5b828204905092915050565b600081905092915050565b50565b6000612b91600083612b76565b9150612b9c82612b81565b600082019050919050565b6000612bb282612b84565b9150819050919050565b7f5061676f2066616c6c6f00000000000000000000000000000000000000000000600082015250565b6000612bf2600a8361244f565b9150612bfd82612bbc565b602082019050919050565b60006020820190508181036000830152612c2181612be5565b9050919050565b7f47617469746f206e6f20646973706f6e69626c65000000000000000000000000600082015250565b6000612c5e60148361244f565b9150612c6982612c28565b602082019050919050565b60006020820190508181036000830152612c8d81612c51565b9050919050565b7f4d6f6e746f20696e636f72726563746f00000000000000000000000000000000600082015250565b6000612cca60108361244f565b9150612cd582612c94565b602082019050919050565b60006020820190508181036000830152612cf981612cbd565b9050919050565b7f596120656a656375746164610000000000000000000000000000000000000000600082015250565b6000612d36600c8361244f565b9150612d4182612d00565b602082019050919050565b60006020820190508181036000830152612d6581612d29565b9050919050565b7f4669726d617320696e737566696369656e746573000000000000000000000000600082015250565b6000612da260148361244f565b9150612dad82612d6c565b602082019050919050565b60006020820190508181036000830152612dd181612d95565b9050919050565b7f5472616e73666572656e6369612066616c6c6f00000000000000000000000000600082015250565b6000612e0e60138361244f565b9150612e1982612dd8565b602082019050919050565b60006020820190508181036000830152612e3d81612e01565b9050919050565b7f5961206573746120646573686162696c697461646f0000000000000000000000600082015250565b6000612e7a60158361244f565b9150612e8582612e44565b602082019050919050565b60006020820190508181036000830152612ea981612e6d565b9050919050565b7f5961206669726d61737465000000000000000000000000000000000000000000600082015250565b6000612ee6600b8361244f565b9150612ef182612eb0565b602082019050919050565b60006020820190508181036000830152612f1581612ed9565b9050919050565b7f5961206865636861000000000000000000000000000000000000000000000000600082015250565b6000612f5260088361244f565b9150612f5d82612f1c565b602082019050919050565b60006020820190508181036000830152612f8181612f45565b9050919050565b6000604082019050612f9d6000830185611e70565b612faa6020830184611e61565b939250505056fea2646970667358221220bab2f36cc978920af8d7bd01e1f537154b62df4fd6fadf1931fb7d89a890686c64736f6c634300081c0033",
  "linkReferences": {},
  "deployedLinkReferences": {}
}